:100000000C9463000C94FB050C94D4050C9422060C
:100010000C9422060C9422060C948B000C948B00FA
:100020000C948B000C948B000C948B000C948B0024
:100030000C948B000C948B000C948B000C948B0014
:100040000C948A050C948B000C9458050C94320582
:100050000C948B000C948B000C948B000C948B00F4
:100060000C948B000C948B000000000024002700EF
:100070002A0000000008000201000003040700003D
:1000800000000000000000000000230026002900FE
:1000900000000000250028002B00040404040404D0
:1000A0000404020202020202030303030303010227
:1000B00004081020408001020408102001020408F6
:1000C00010209A064E0911241FBECFEFD8E0DEBFE4
:1000D000CDBF11E0A0E0B1E0E8EFF3E102C0059090
:1000E0000D92A437B107D9F722E0A4E7B1E001C02F
:1000F0001D92A739B207E1F710E0C2E6D0E004C0D4
:100100002197FE010E94E909C136D107C9F70E9473
:100110007B070C94EF090C940000AF92BF92CF9232
:10012000DF92EF92FF920F931F93CF93DF936C01B7
:100130007B018B01040F151FEB015E01AE18BF0898
:10014000C017D10759F06991D601ED91FC9101904A
:10015000F081E02DC6010995892B79F7C501DF9162
:10016000CF911F910F91FF90EF90DF90CF90BF90B4
:10017000AF900895FC01538D448D252F30E0842FDE
:1001800090E0821B930B541710F0CF9608950197BF
:100190000895FC01918D828D981761F0A28DAE0FAC
:1001A000BF2FB11D5D968C91928D9F5F9F73928F33
:1001B00090E008958FEF9FEF0895FC01918D828D5F
:1001C000981731F0828DE80FF11D858D90E008952C
:1001D0008FEF9FEF0895FC01918D228D892F90E084
:1001E000805C9F4F821B91098F739927089583EC40
:1001F00091E00E94EB0021E0892B09F420E0822F9E
:10020000089580E090E0892B29F00E94F700811189
:100210000C9400000895FC01A48DA80FB92FB11D06
:10022000A35ABF4F2C91848D90E001968F7399272C
:10023000848FA689B7892C93A089B1898C9183700A
:1002400080648C93938D848D981306C00288F38903
:10025000E02D80818F7D80830895EF92FF920F9330
:100260001F93CF93DF93EC0181E0888F9B8D8C8D62
:1002700098131AC0E889F989808185FF15C09FB756
:10028000F894EE89FF896083E889F9898081837019
:10029000806480839FBF81E090E0DF91CF911F91C8
:1002A0000F91FF90EF900895F62E0B8D10E00F5FE9
:1002B0001F4F0F731127E02E8C8D8E110CC00FB6BF
:1002C00007FCFACFE889F989808185FFF5CFCE0157
:1002D0000E940B01F1CFEB8DEC0FFD2FF11DE35AC6
:1002E000FF4FF0829FB7F8940B8FEA89FB898081DA
:1002F0008062CFCFCF93DF93EC01888D8823B9F054
:10030000AA89BB89E889F9898C9185FD03C0808120
:1003100086FD0DC00FB607FCF7CF8C9185FFF2CF9D
:10032000808185FFEDCFCE010E940B01E9CFDF91E7
:10033000CF91089590E0FC01EE58FF4F2491FC010D
:10034000E255FF4F3491FC01E656FF4FE491EE2356
:10035000C9F0222339F0233001F1A8F4213019F13A
:10036000223029F1F0E0EE0FFF1FE057FF4FA5917B
:10037000B4918FB7F894EC91611126C030953E236B
:100380003C938FBF08952730A9F02830C9F024305E
:1003900049F7809180008F7D03C0809180008F7726
:1003A00080938000DFCF84B58F7784BDDBCF84B5A9
:1003B0008F7DFBCF8091B0008F778093B000D2CF3C
:1003C0008091B0008F7DF9CF3E2BDACFCF93DF93B2
:1003D00090E0FC01E255FF4F249186569F4FFC01AF
:1003E00084918823C9F090E0880F991FFC01E85997
:1003F000FF4FA591B491FC01E057FF4FC591D491F7
:1004000061110DC09FB7F8948C91209582238C9335
:100410008881282328839FBFDF91CF910895623080
:1004200051F49FB7F8943C91822F809583238C934D
:10043000E8812E2BEFCF8FB7F894EC912E2B2C93D5
:100440008FBFEACF3FB7F8948091B9019091BA017C
:10045000A091BB01B091BC0126B5A89B05C02F3F60
:1004600019F00196A11DB11D3FBFBA2FA92F982FDA
:100470008827BC01CD01620F711D811D911D42E0D5
:10048000660F771F881F991F4A95D1F708958F929D
:100490009F92AF92BF92CF92DF92EF92FF924B0169
:1004A0005C010E9422026B017C010E9422026C19F5
:1004B0007D098E099F09683E734081059105A8F367
:1004C00021E0821A9108A108B10888EEC80E83E0E5
:1004D000D81EE11CF11C81149104A104B10429F778
:1004E000FF90EF90DF90CF90BF90AF909F908F9054
:1004F000089508952091BF013091C0012817390750
:1005000071F49091BD018091BE01981741F0E09186
:10051000BD01F0E0EC58FE4F808190E008958FEF30
:100520009FEF08950895EF92FF920F931F93CF933B
:10053000DF93DC015C96ED90FC905D97E114F10493
:1005400079F481E090E013969C938E93129790E05B
:1005500080E0DF91CF911F910F91FF90EF90089570
:100560005196ED91FC91529750968C915097982FFF
:1005700090950FB75E962C915E97122F127021FD09
:100580006095F8942081112319F1282B2083E7012D
:100590002197F1F728E0462F50E0308160FF1AC024
:1005A000382B3083E7012197F1F7BA0175956795EC
:1005B000215089F7112381F08081892380830FBF27
:1005C0005C968D919C910197F1F781E090E0C1CF0D
:1005D0002923DCCF3923E5CF9081892BEFCF2091E0
:1005E000BF013091C0012817390771F48091BE0115
:1005F0002091BD0190E0805C9F4F821B910960E4D7
:1006000070E00E94BA09089590E080E0089520917A
:10061000BF013091C00128173907B9F49091BD018D
:100620008091BE01981789F0E091BD01F0E0EC588F
:10063000FE4F80812091BD0130E02F5F3F4F2F732F
:1006400033272093BD0190E008958FEF9FEF089529
:10065000089590E080E00895CF93DF93EC0160E08F
:100660008E810E949A0161E08E810E949A0160E071
:100670008E810E949A018BE891E00197F1F7DF915A
:10068000CF910895CF92DF92EF92FF920F931F9335
:10069000CF93DF936C017C0187E0E80EF11CD0E082
:1006A000C0E0062F10E0B8010C2E02C075956795CA
:1006B0000A94E2F76170F70181917F010E949A012B
:1006C0002196C430D10579F7C601DF91CF911F91F2
:1006D0000F91FF90EF90DF90CF900C942C03CF926E
:1006E000DF92EF92FF920F931F93CF93DF93EC0172
:1006F000F62E642F8C810E949A018D818F3F19F014
:1007000060E00E949A010F2D10E08F8584FF25C0C4
:100710006E0187E0C80ED11CF12CE12CB8010E2C23
:1007200002C0759567950A94E2F76170F6018191B0
:100730006F010E949A01FFEFEF1AFF0A88E0E816A6
:10074000F10461F7CE01DF91CF911F910F91FF90DE
:10075000EF90DF90CF900C942C03B80184E0759556
:1007600067958A95E1F7CE010E9442036F2DCE0175
:10077000DF91CF911F910F91FF90EF90DF90CF907D
:100780000C94420340E0682F8FE792E00C946F03D3
:10079000CF93DF93823029F490918E0298609093EA
:1007A0008E02809392021092930280E480939402CE
:1007B00080E18093950280E58093960261E08091CC
:1007C00083020E94E601809184028F3F19F061E06C
:1007D0000E94E60161E0809185020E94E601CFE778
:1007E000D2E09E012F57324080918E0284FD0BC0D3
:1007F00084E090E021962817390744F461E08E8167
:100800000E94E601EECF88E090E0F4CF8BE39DE01C
:100810000197F1F760E0809183020E949A0160E005
:10082000809185020E949A01809184028F3F19F085
:1008300060E00E949A0180918E0284FD39C063E0DD
:100840008FE792E00E944203CBE4D6E4CE01019709
:10085000F1F763E08FE792E00E9442032197F1F7FE
:1008600063E08FE792E00E94420383E592E0019704
:10087000F1F762E08FE792E00E94420380918E02DE
:1008800080620E94C20384E080938F028CE00E9409
:10089000C20381E00E94C2038BE39FE10197F1F75D
:1008A00082E08093900286E0DF91CF910C94C203A6
:1008B00080620E94C2038BE496E40197F1F7809175
:1008C0008E0280620E94C20383E592E00197F1F7F5
:1008D00080918E0280620E94C203D0CF41E00E94CC
:1008E0006F0381E090E00895FB0101900020E9F79B
:1008F0003197AF01461B570BDC01ED91FC91028053
:10090000F381E02D09948F929F92AF92BF92EF9264
:10091000FF920F931F93CF93DF93CDB7DEB7A197CD
:100920000FB6F894DEBF0FBECDBF7C01FA01CB013C
:1009300019A2223008F42AE08E010F5D1F4F822E8B
:10094000912CB12CA12CBF01A50194010E94890911
:10095000F901CA016A300CF5605DD8016E938D0112
:10096000232B242B252B79F790E080E0109721F0A2
:10097000BD01C7010E947404A1960FB6F894DEBFB2
:100980000FBECDBFDF91CF911F910F91FF90EF90E0
:10099000BF90AF909F908F900895695CDECFCF920B
:1009A000DF92EF92FF920F931F93CF93DF93EC01AF
:1009B0006A017B01E881F9810190F081E02D6DE20F
:1009C00009958C0144275527BA014C195D096E0918
:1009D0007F092AE0CE010E948304800F911FDF91DE
:1009E000CF911F910F91FF90EF90DF90CF900895DE
:1009F000CF92DF92EF92FF92A091C101B091C2011C
:100A000024E630E00E94CE092FEF33E040E050E0D2
:100A10000E946A0969017A0164E371E080E692E06C
:100A20000E947404F7FE16C0B701A60180E692E0AA
:100A30000E94CF046BE471E080E692E00E947404AF
:100A400068EE73E080E090E0FF90EF90DF90CF9051
:100A50000C9447022AE0B701A60180E692E00E94CA
:100A60008304E8CF1F920F920FB60F9211242F9399
:100A70003F934F935F936F937F938F939F93AF9326
:100A8000BF93EF93FF9383EC91E00E940B01FF91E2
:100A9000EF91BF91AF919F918F917F916F915F91F6
:100AA0004F913F912F910F900FBE0F901F9018956F
:100AB0001F920F920FB60F9211242F938F939F9333
:100AC000EF93FF93E091D301F091D4018081E09105
:100AD000D901F091DA0182FD1BC090818091DC0187
:100AE0008F5F8F732091DD01821741F0E091DC016F
:100AF000F0E0ED53FE4F958F8093DC01FF91EF9175
:100B00009F918F912F910F900FBE0F901F9018956E
:100B10008081F4CF1F920F920FB60F9211242F9362
:100B20003F938F939F93AF93BF938091B501909123
:100B3000B601A091B701B091B8013091B40123E0A2
:100B4000230F2D3758F50196A11DB11D2093B40137
:100B50008093B5019093B601A093B701B093B8010B
:100B60008091B9019091BA01A091BB01B091BC01F3
:100B70000196A11DB11D8093B9019093BA01A09374
:100B8000BB01B093BC01BF91AF919F918F913F91F9
:100B90002F910F900FBE0F901F90189526E8230FEE
:100BA0000296A11DB11DD2CF1F920F920FB60F92C8
:100BB00011242F933F934F935F936F937F938F9362
:100BC0009F93AF93BF93EF93FF93E0910201F09156
:100BD00003010995FF91EF91BF91AF919F918F9183
:100BE0007F916F915F914F913F912F910F900FBE29
:100BF0000F901F9018951F920F920FB60F9211240D
:100C00002F933F934F935F936F937F938F939F9314
:100C1000AF93BF93EF93FF93E0910001F091010137
:100C20000995FF91EF91BF91AF919F918F917F9126
:100C30006F915F914F913F912F910F900FBE0F9049
:100C40001F9018951F920F920FB60F9211242F9399
:100C50003F934F935F936F937F938F939F93AF9344
:100C6000BF93EF93FF93E091BF01F091C0013097E4
:100C700049F0A685B7858585968D91FF14C09C9116
:100C80008923A1F4FF91EF91BF91AF919F918F9133
:100C90007F916F915F914F913F912F910F900FBE78
:100CA0000F901F9018959C91892361F7A389B489AF
:100CB0009C918589809589238C9386899789019752
:100CC000F1F7608D718DA685B785558538E020E0F8
:100CD000CB010197F1F7822F90E095958795282F0A
:100CE0004C91452309F02068315091F7868D81FDA4
:100CF00020958091BE0190E001968F7399273091E5
:100D0000BD01381799F0A091BE01B0E0AC58BE4FBC
:100D10002C938093BE01828D938D0197F1F7A38967
:100D2000B4898C919589892B8C93ACCF868D816009
:100D3000868FF1CFCF92DF92EF92FF921092C60191
:100D40001092C50198EEC92E93E0D92EE12CF12C1A
:100D5000C092C701D092C801E092C901F092CA01C5
:100D600088E091E09093C4018093C30185EC90E00A
:100D70009093D0018093CF0184EC90E09093D201C6
:100D80008093D10180EC90E09093D4018093D301C3
:100D900081EC90E09093D6018093D50182EC90E0B5
:100DA0009093D8018093D70186EC90E09093DA017C
:100DB0008093D9011092DC011092DD011092DE01C6
:100DC0001092DF0110928202109281028CE291E077
:100DD0009093800280937F028CE0809383028FEF58
:100DE000809384028BE0809385028AE08093860260
:100DF00089E08093870288E08093880287E080936F
:100E0000890210928A0210928B0210928C02109228
:100E10008D0210928E0281E00E94C803109263023C
:100E200010926202C0926402D0926502E092660261
:100E3000F09267028AE191E09093610280936002F0
:100E40001092770210927602109279021092780234
:100E500010927B0210927A0210927D0210927C0214
:100E600060917E026E7F6D7F60937E0266956170F9
:100E700081E0682780E10E949A0161E080E10E94A0
:100E8000E601EEEBF0E0E491E0937002EAEAF0E0D4
:100E9000E491F0E0EE0FFF1FE057FF4F8591949132
:100EA000909372028093710260E081E10E94E601FA
:100EB00080917E0281FD04C061E081E10E949A017F
:100EC00081E180936C02EFEBF0E0E491E0936D023E
:100ED000EBEAF0E0E491F0E0EE0FFF1FEA57FF4F7E
:100EE0008591949190936F0280936E02FF90EF90A2
:100EF000DF90CF900895789484B5826084BD84B5E6
:100F0000816084BD85B5826085BD85B5816085BD04
:100F100080916E00816080936E00109281008091BC
:100F20008100826080938100809181008160809344
:100F30008100809180008160809380008091B10069
:100F400084608093B1008091B00081608093B00094
:100F500080917A00846080937A0080917A00826028
:100F600080937A0080917A00816080937A008091EA
:100F70007A00806880937A001092C10062E083E07A
:100F80000E94E60110927B0210927A02109279027E
:100F90001092780210927702109276028DE991E019
:100FA00090937D0280937C0290916C02963108F0C0
:100FB00047C02DEB30E030937702209376022BE987
:100FC00031E030937902209378022CE231E03093C3
:100FD0007B0220937A022091680084E0983048F0E8
:100FE00031E09E3008F430E081E001C0880F3A958E
:100FF000EAF7822B809368002DE630E0983050F0BD
:101000002BE630E09E3030F02CE630E0963110F0E8
:1010100030E020E03093740220937302292F30E0F7
:10102000983008F01CC181E001C0880F9A95EAF75A
:101030008093750280917C0290917D020197F1F777
:1010400080917A0290917B02892B49F1E091BF0156
:10105000F091C00182E0E036F80709F1309739F0ED
:10106000A389B4899C918589809589238C938091EB
:101070007E028E7F80937E021092BE011092BD018F
:1010800080E692E09093C0018093BF01E0917302EB
:10109000F0917402808190917502892B8083E09198
:1010A000D301F091D40182E08083E091CF01F091EF
:1010B000D0011082E091D101F091D2018FEC8083B8
:1010C0001092DB01E091D701F091D80186E0808396
:1010D000E091D501F091D601808180618083E0911B
:1010E000D501F091D601808188608083E091D5019F
:1010F000F091D601808180688083E091D501F091E4
:10110000D60180818F7D808382E00E94C8036EE4D7
:1011100071E08FE792E00E947404E0919202E23065
:1011200008F0AAC0E150F0E0E158FD4F84898068E2
:101130000E94C2036BE571E08FE792E00E947404A5
:1011400068EE73E080E090E00E94470288EF94E050
:10115000909303018093020180916900837F8860EE
:1011600080936900E99A81E4782ECBE3DFE188245B
:101170008A9493E0992EA12CB12C00E010E070929B
:101180007C0080917A00806480937A0080917A005C
:1011900086FDFCCF9091780080917900892798276F
:1011A00089279093C2018093C10181E00E94C2030C
:1011B000CE010197F1F762E671E08FE792E00E94BD
:1011C0007404A091C101B091C20124E630E00E94F4
:1011D000CE09A50194010E946A0969017A01F7FE0E
:1011E0004DC0BA01A9018FE792E00E94CF0468E6E2
:1011F00071E083EC91E00E947404F7FE47C0B701F0
:10120000A60183EC91E00E94CF046BE471E083ECD3
:1012100091E00E94740468EC70E080E090E00E942D
:1012200047026EE671E080E692E00E9474046BE48F
:1012300071E080E692E00E94740468EC70E080E067
:1012400090E00E9447020115110509F498CF0E9411
:10125000F700882309F493CF0E94000090CF9E30BE
:1012600040F42850310981E001C0880F2A95EAF73F
:10127000DFCE2E503109F7CFE1E055CF2AE0BA0199
:10128000A6018FE792E00E948304B1CF2AE0B70164
:10129000A60183EC91E00E948304B7CF8AE191E03C
:1012A00090936102809360028091BF019091C00190
:1012B0008056924071F4E0917302F0917402908133
:1012C000809175028095892380831092C0011092CD
:1012D000BF010895052E97FB1EF400940E9481091A
:1012E00057FD07D00E94890907FC03D04EF40C94E7
:1012F000810950954095309521953F4F4F4F5F4F55
:10130000089590958095709561957F4F8F4F9F4F71
:101310000895A1E21A2EAA1BBB1BFD010DC0AA1F36
:10132000BB1FEE1FFF1FA217B307E407F50720F04E
:10133000A21BB30BE40BF50B661F771F881F991FC9
:101340001A9469F760957095809590959B01AC0112
:10135000BD01CF010895A29FB001B39FC001A39F1B
:10136000700D811D1124911DB29F700D811D1124DE
:10137000911D089597FB072E16F4009407D077FD72
:1013800009D00E94D50907FC05D03EF490958195BF
:101390009F4F0895709561957F4F08950E94AB0906
:1013A000B7FF0895821B930B0895AA1BBB1B51E145
:1013B00007C0AA1FBB1FA617B70710F0A61BB70BC5
:1013C000881F991F5A95A9F780959095BC01CD016A
:1013D0000895EE0FFF1F0590F491E02D099410E0A1
:1013E000C2E6D0E004C0FE010E94E9092196C3369E
:0813F000D107C9F7F894FFCF03
:1013F80079027902000000002D018D00BA007A01FF
:10140800EB00C900DD000000000093028D002903F5
:101418009202EF0207037A02000000006E048D00BA
:101428002903280354656D706572617475726120B3
:1014380072656369626964613A20000D0A00434F6E
:101448004D554E49434143494F4E0053455249413A
:101458004C00504F543A2000504F543D2000484F04
:041468004C410000F3
:00000001FF
