:100000000C9462000C94C8030C94A1030C948A0015
:100010000C948A000C948A000C948A000C948A0038
:100020000C948A000C948A000C948A000C948A0028
:100030000C948A000C948A000C948A000C948A0018
:100040000C9457030C948A000C948A000C948A0038
:100050000C948A000C948A000C948A000C948A00F8
:100060000C948A000C948A000000000024002700F1
:100070002A0000000000250028002B0000000000DE
:1000800023002600290004040404040404040202DA
:100090000202020203030303030301020408102007
:1000A0004080010204081020010204081020000012
:1000B0000008000201000003040700000000000027
:1000C0000000F70411241FBECFEFD8E0DEBFCDBF84
:1000D00011E0A0E0B1E0E8EEFAE002C005900D9278
:1000E000A835B107D9F721E0A8E5B1E001C01D921C
:1000F000AB37B207E1F710E0C2E6D0E004C02197C9
:10010000FE010E946C05C136D107C9F70E94EF03BA
:100110000C9472050C940000AF92BF92CF92DF92C4
:10012000EF92FF920F931F93CF93DF936C017B01AC
:100130008B01040F151FEB015E01AE18BF08C0173D
:10014000D10759F06991D601ED91FC910190F081B0
:10015000E02DC6010995892B79F7C501DF91CF9173
:100160001F910F91FF90EF90DF90CF90BF90AF90D5
:100170000895833081F028F4813099F08230A9F01D
:1001800008958730A9F08830C9F08430B1F48091A7
:1001900080008F7D03C0809180008F7780938000E6
:1001A000089584B58F7784BD089584B58F7DFBCF86
:1001B0008091B0008F778093B00008958091B00057
:1001C0008F7DF9CF1F93CF93DF93282F30E0F90174
:1001D000E255FF4F8491F901E656FF4FD491F901A2
:1001E000EA57FF4FC491CC23A9F0162F81110E942A
:1001F000B900EC2FF0E0EE0FFF1FEE58FF4FA59176
:10020000B4918FB7F894EC91111108C0D095DE230A
:10021000DC938FBFDF91CF911F910895DE2BF8CF34
:10022000CF93DF9390E0FC01E656FF4F24918A576D
:100230009F4FFC0184918823D1F090E0880F991F93
:10024000FC01E859FF4FA591B491FC01EE58FF4F16
:10025000C591D491623071F49FB7F8943C91822F8C
:10026000809583238C93E8812E2B28839FBFDF9179
:10027000CF9108958FB7F894EC912E2B2C938FBFCC
:10028000F6CF3FB7F89480915F0190916001A09103
:100290006101B091620126B5A89B05C02F3F19F0FE
:1002A0000196A11DB11D3FBFBA2FA92F982F8827F6
:1002B000BC01CD01620F711D811D911D42E0660FD1
:1002C000771F881F991F4A95D1F7089508950895BB
:1002D00090E080E00895FC0101900020E9F731975B
:1002E000AF01481B590BBC0183E691E00C948C00D4
:1002F0008F929F92AF92BF920F931F93CF93DF93F2
:10030000CDB7DEB7A1970FB6F894DEBF0FBECDBF55
:1003100019A2423008F44AE08E010F5D1F4F842E6F
:10032000912CB12CA12CA50194010E943405E62F3B
:10033000B901CA01EA30F4F4E05DD801EE938D0111
:10034000232B242B252B79F790E080E0109719F0D0
:10035000CD010E946B01A1960FB6F894DEBF0FBECF
:10036000CDBFDF91CF911F910F91BF90AF909F9024
:100370008F900895E95CE1CFCF93DF93EC0160E0CB
:100380008E810E94E20061E08E810E94E20060E0C6
:100390008E810E94E2008BE891E00197F1F7DF91F6
:1003A000CF910895CF92DF92EF92FF920F931F9318
:1003B000CF93DF936C017C0187E0E80EF11CD0E065
:1003C000C0E0062F10E0B8010C2E02C075956795AD
:1003D0000A94E2F76170F70181917F010E94E200C7
:1003E0002196C430D10579F7C601DF91CF911F91D5
:1003F0000F91FF90EF90DF90CF900C94BC01CF92C3
:10040000DF92EF92FF920F931F93CF93DF93EC0154
:10041000F62E642F8C810E94E2008D818F3F19F0AF
:1004200060E00E94E2000F2D10E08F8584FF25C060
:100430006E0187E0C80ED11CF12CE12CB8010E2C06
:1004400002C0759567950A94E2F76170F601819193
:100450006F010E94E200FFEFEF1AFF0A88E0E81642
:10046000F10461F7CE01DF91CF911F910F91FF90C1
:10047000EF90DF90CF900C94BC01B80184E07595AB
:1004800067958A95E1F7CE010E94D2016F2DCE01CA
:10049000DF91CF911F910F91FF90EF90DF90CF9060
:1004A0000C94D20140E0682F83E691E00C94FF01A8
:1004B000E0917601E23040F4E150F0E0ED59FE4F7A
:1004C000848980680C945202E1E0F7CF81E00E94B9
:1004D00052028BE39FE10197F1F70895CBE9DFE04A
:1004E0000E94660245E050E060E171E083E691E041
:1004F0000E948C000E9458024DE050E066E171E0DD
:1005000083E691E00E948C00CE010197F1F7E8CFDD
:10051000CF93DF93823029F4909172019860909389
:100520007201809376011092770180E480937801C4
:1005300080E18093790180E580937A0161E0809188
:1005400067010E941001809168018F3F19F061E0FE
:100550000E94100161E0809169010E941001C3E6D0
:10056000D1E09E01235631408091720184FD0BC081
:1005700084E090E021962817390744F461E08E81E9
:100580000E941001EECF88E090E0F4CF8BE39DE075
:100590000197F1F760E0809167010E94E20060E05E
:1005A000809169010E94E200809168018F3F19F0FB
:1005B00060E00E94E2008091720184FD34C063E03B
:1005C00083E691E00E94D201CBE4D6E4CE0101970C
:1005D000F1F763E083E691E00E94D2012197F1F701
:1005E00063E083E691E00E94D20183E592E0019707
:1005F000F1F762E083E691E00E94D20180917201FE
:1006000080620E94520284E0809373018CE00E9419
:1006100052020E94660282E08093740186E0DF91BC
:10062000CF910C94520280620E9452028BE496E4B5
:100630000197F1F78091720180620E94520283E576
:1006400092E00197F1F78091720180620E9452025C
:10065000D5CF41E00E94FF0181E090E00895CF9264
:10066000DF92EF92FF92CF93DF9385E0C82ED12CDB
:10067000E12CF12CCBEFD8E00E94660284E291E0FD
:100680000E946B014AE0C701B6010E947801CE01C9
:100690000197F1F781E0C81AD108E108F10861F784
:1006A000DF91CF91FF90EF90DF90CF9008951F9250
:1006B0000F920FB60F9211242F933F938F939F9316
:1006C000AF93BF9380915B0190915C01A0915D011C
:1006D000B0915E0130915A0123E0230F2D3758F578
:1006E0000196A11DB11D20935A0180935B01909347
:1006F0005C01A0935D01B0935E0180915F019091D8
:100700006001A0916101B09162010196A11DB11D2E
:1007100080935F0190936001A0936101B0936201A7
:10072000BF91AF919F918F913F912F910F900FBEED
:100730000F901F90189526E8230F0296A11DB11D5A
:10074000D2CF1F920F920FB60F9211242F933F9387
:100750004F935F936F937F938F939F93AF93BF93C9
:10076000EF93FF93E0910201F09103010995FF914E
:10077000EF91BF91AF919F918F917F916F915F9119
:100780004F913F912F910F900FBE0F901F90189592
:100790001F920F920FB60F9211242F933F934F93F6
:1007A0005F936F937F938F939F93AF93BF93EF93D9
:1007B000FF93E0910001F09101010995FF91EF9104
:1007C000BF91AF919F918F917F916F915F914F9169
:1007D0003F912F910F900FBE0F901F901895789416
:1007E00084B5826084BD84B5816084BD85B5826036
:1007F00085BD85B5816085BD80916E0081608093E7
:100800006E0010928100809181008260809381004F
:10081000809181008160809381008091800081605F
:10082000809380008091B10084608093B1008091BA
:10083000B00081608093B00080917A0084608093E2
:100840007A0080917A00826080937A0080917A00A9
:10085000816080937A0080917A00806880937A002A
:100860001092C10062E082E00E94100162E083E029
:100870000E94100182E00E9488028FE291E00E94B3
:100880006B010E94580286E391E00E946B018EE6A4
:1008900092E09093010180930001809169008C7F28
:1008A000826080936900E89A8FE293E0909303015D
:1008B0008093020180916900837F88608093690042
:1008C000E99AC1EBD0E00DE910E039E8E32E30E021
:1008D000F32EFE018491F801C490F701D490DD203D
:1008E00071F081110E94B900ED2DF0E0EE0FFF1FB5
:1008F000E458FF4FA591B4918C91C82251F711E4AF
:1009000096EF492E55245A94652C752CC0E0D0E002
:1009100010937C0080917A00806480937A008091AB
:100920007A0086FDFCCF80917800A0917900BA2FE3
:10093000A82F2FE030E00E9465052FEF33E040E064
:1009400050E00E94150549015A017A016901FAE057
:10095000CF0ED11CE11CF11C0E94660280E491E0E4
:100960000E946B010E9458024AE0C701B601F7FEDF
:100970000DC041E06DE283E691E00E94FF01C301FA
:10098000B201681979098A099B094AE00E94780135
:1009900080E591E00E946B010E9441014B015C01E6
:1009A00080EDC82E87E0D82EE12CF12C0E94410169
:1009B000681979098A099B09683E73408105910588
:1009C000A8F321E0C21AD108E108F10888EE880EE8
:1009D00083E0981EA11CB11CC114D104E104F104F0
:1009E00029F7209709F494CF0E94000091CFE3E605
:1009F000F1E01382128288E091E0918380838CE0A1
:100A000084838FEF85838BE086838AE0878389E008
:100A1000808788E0818787E0828713861486158621
:100A20001686178681E00C948802052E97FB1EF42B
:100A300000940E942C0557FD07D00E94340507FC46
:100A400003D04EF40C942C0550954095309521958B
:100A50003F4F4F4F5F4F08959095809570956195EA
:100A60007F4F8F4F9F4F0895A1E21A2EAA1BBB1BE9
:100A7000FD010DC0AA1FBB1FEE1FFF1FA217B3076A
:100A8000E407F50720F0A21BB30BE40BF50B661F80
:100A9000771F881F991F1A9469F760957095809544
:100AA00090959B01AC01BD01CF010895A29FB001BB
:100AB000B39FC001A39F700D811D1124911DB29F92
:100AC000700D811D1124911D08950E945605B7FFD8
:100AD0000895821B930B0895EE0FFF1F0590F4916C
:080AE000E02D0994F894FFCF0A
:100AE800660166010000000029038C0068016701A7
:100AF8004552524F52004645524E414E444F2045B2
:100B080053504900436F6E7461646F723A20004F0E
:100B18005052494D450020554E20424F544F4E00EB
:100B28005069657A6173206120636F6E7461720029
:080B3800207069657A61730009
:00000001FF
